{
  "_format": "hh-sol-artifact-1",
  "contractName": "Crowdfunding",
  "sourceName": "contracts/Crowdfunding.sol",
  "abi": [
    {
      "inputs": [
        {
          "internalType": "uint256",
          "name": "",
          "type": "uint256"
        }
      ],
      "name": "campaigns",
      "outputs": [
        {
          "internalType": "address",
          "name": "owner",
          "type": "address"
        },
        {
          "internalType": "string",
          "name": "title",
          "type": "string"
        },
        {
          "internalType": "string",
          "name": "description",
          "type": "string"
        },
        {
          "internalType": "uint256",
          "name": "target",
          "type": "uint256"
        },
        {
          "internalType": "uint256",
          "name": "deadline",
          "type": "uint256"
        },
        {
          "internalType": "uint256",
          "name": "amountCollected",
          "type": "uint256"
        },
        {
          "internalType": "string",
          "name": "image",
          "type": "string"
        }
      ],
      "stateMutability": "view",
      "type": "function"
    },
    {
      "inputs": [
        {
          "internalType": "address",
          "name": "_owner",
          "type": "address"
        },
        {
          "internalType": "string",
          "name": "_title",
          "type": "string"
        },
        {
          "internalType": "string",
          "name": "_description",
          "type": "string"
        },
        {
          "internalType": "uint256",
          "name": "_target",
          "type": "uint256"
        },
        {
          "internalType": "uint256",
          "name": "_deadline",
          "type": "uint256"
        },
        {
          "internalType": "string",
          "name": "_image",
          "type": "string"
        }
      ],
      "name": "createCampaign",
      "outputs": [
        {
          "internalType": "uint256",
          "name": "",
          "type": "uint256"
        }
      ],
      "stateMutability": "nonpayable",
      "type": "function"
    },
    {
      "inputs": [
        {
          "internalType": "uint256",
          "name": "_id",
          "type": "uint256"
        }
      ],
      "name": "donateToCampaign",
      "outputs": [],
      "stateMutability": "payable",
      "type": "function"
    },
    {
      "inputs": [],
      "name": "getCampaigns",
      "outputs": [
        {
          "components": [
            {
              "internalType": "address",
              "name": "owner",
              "type": "address"
            },
            {
              "internalType": "string",
              "name": "title",
              "type": "string"
            },
            {
              "internalType": "string",
              "name": "description",
              "type": "string"
            },
            {
              "internalType": "uint256",
              "name": "target",
              "type": "uint256"
            },
            {
              "internalType": "uint256",
              "name": "deadline",
              "type": "uint256"
            },
            {
              "internalType": "uint256",
              "name": "amountCollected",
              "type": "uint256"
            },
            {
              "internalType": "string",
              "name": "image",
              "type": "string"
            },
            {
              "internalType": "address[]",
              "name": "donators",
              "type": "address[]"
            },
            {
              "internalType": "uint256[]",
              "name": "donations",
              "type": "uint256[]"
            }
          ],
          "internalType": "struct Crowdfunding.Campaign[]",
          "name": "",
          "type": "tuple[]"
        }
      ],
      "stateMutability": "view",
      "type": "function"
    },
    {
      "inputs": [
        {
          "internalType": "uint256",
          "name": "_id",
          "type": "uint256"
        }
      ],
      "name": "getDonators",
      "outputs": [
        {
          "internalType": "address[]",
          "name": "",
          "type": "address[]"
        },
        {
          "internalType": "uint256[]",
          "name": "",
          "type": "uint256[]"
        }
      ],
      "stateMutability": "view",
      "type": "function"
    },
    {
      "inputs": [],
      "name": "numberOfCampaigns",
      "outputs": [
        {
          "internalType": "uint256",
          "name": "",
          "type": "uint256"
        }
      ],
      "stateMutability": "view",
      "type": "function"
    }
  ],
  "bytecode": "0x60806040526000600155348015601457600080fd5b506119a3806100246000396000f3fe6080604052600436106100555760003560e01c806307ca140d1461005a5780630fa91fa914610085578063141961bc146100c357806342a4fda8146101065780639943e3a114610122578063a6b036331461015f575b600080fd5b34801561006657600080fd5b5061006f61018a565b60405161007c9190610ba4565b60405180910390f35b34801561009157600080fd5b506100ac60048036038101906100a79190610bff565b610190565b6040516100ba929190610dda565b60405180910390f35b3480156100cf57600080fd5b506100ea60048036038101906100e59190610bff565b6102a0565b6040516100fd9796959493929190610eb0565b60405180910390f35b610120600480360381019061011b9190610bff565b61049a565b005b34801561012e57600080fd5b5061014960048036038101906101449190611095565b610636565b6040516101569190610ba4565b60405180910390f35b34801561016b57600080fd5b50610174610759565b6040516101819190611441565b60405180910390f35b60015481565b6060806000808481526020019081526020016000206007016000808581526020019081526020016000206008018180548060200260200160405190810160405280929190818152602001828054801561023e57602002820191906000526020600020905b8160009054906101000a900473ffffffffffffffffffffffffffffffffffffffff1673ffffffffffffffffffffffffffffffffffffffff16815260200190600101908083116101f4575b505050505091508080548060200260200160405190810160405280929190818152602001828054801561029057602002820191906000526020600020905b81548152602001906001019080831161027c575b5050505050905091509150915091565b60006020528060005260406000206000915090508060000160009054906101000a900473ffffffffffffffffffffffffffffffffffffffff16908060010180546102e990611492565b80601f016020809104026020016040519081016040528092919081815260200182805461031590611492565b80156103625780601f1061033757610100808354040283529160200191610362565b820191906000526020600020905b81548152906001019060200180831161034557829003601f168201915b50505050509080600201805461037790611492565b80601f01602080910402602001604051908101604052809291908181526020018280546103a390611492565b80156103f05780601f106103c5576101008083540402835291602001916103f0565b820191906000526020600020905b8154815290600101906020018083116103d357829003601f168201915b50505050509080600301549080600401549080600501549080600601805461041790611492565b80601f016020809104026020016040519081016040528092919081815260200182805461044390611492565b80156104905780601f1061046557610100808354040283529160200191610490565b820191906000526020600020905b81548152906001019060200180831161047357829003601f168201915b5050505050905087565b60003490506000806000848152602001908152602001600020905080600701339080600181540180825580915050600190039060005260206000200160009091909190916101000a81548173ffffffffffffffffffffffffffffffffffffffff021916908373ffffffffffffffffffffffffffffffffffffffff1602179055508060080182908060018154018082558091505060019003906000526020600020016000909190919091505560008160000160009054906101000a900473ffffffffffffffffffffffffffffffffffffffff1673ffffffffffffffffffffffffffffffffffffffff168360405161058f906114f4565b60006040518083038185875af1925050503d80600081146105cc576040519150601f19603f3d011682016040523d82523d6000602084013e6105d1565b606091505b5050905080610615576040517f08c379a000000000000000000000000000000000000000000000000000000000815260040161060c90611555565b60405180910390fd5b8282600501600082825461062991906115a4565b9250508190555050505050565b60008060008060015481526020019081526020016000209050428411610691576040517f08c379a000000000000000000000000000000000000000000000000000000000815260040161068890611624565b60405180910390fd5b878160000160006101000a81548173ffffffffffffffffffffffffffffffffffffffff021916908373ffffffffffffffffffffffffffffffffffffffff160217905550868160010190816106e591906117f0565b50858160020190816106f791906117f0565b50848160030181905550838160040181905550600081600501819055508281600601908161072591906117f0565b5060016000815480929190610739906118c2565b91905055506001805461074c919061190a565b9150509695505050505050565b6060600060015467ffffffffffffffff81111561077957610778610f6a565b5b6040519080825280602002602001820160405280156107b257816020015b61079f610b29565b8152602001906001900390816107975790505b50905060005b600154811015610b21576000806000838152602001908152602001600020905080604051806101200160405290816000820160009054906101000a900473ffffffffffffffffffffffffffffffffffffffff1673ffffffffffffffffffffffffffffffffffffffff1673ffffffffffffffffffffffffffffffffffffffff16815260200160018201805461084b90611492565b80601f016020809104026020016040519081016040528092919081815260200182805461087790611492565b80156108c45780601f10610899576101008083540402835291602001916108c4565b820191906000526020600020905b8154815290600101906020018083116108a757829003601f168201915b505050505081526020016002820180546108dd90611492565b80601f016020809104026020016040519081016040528092919081815260200182805461090990611492565b80156109565780601f1061092b57610100808354040283529160200191610956565b820191906000526020600020905b81548152906001019060200180831161093957829003601f168201915b5050505050815260200160038201548152602001600482015481526020016005820154815260200160068201805461098d90611492565b80601f01602080910402602001604051908101604052809291908181526020018280546109b990611492565b8015610a065780601f106109db57610100808354040283529160200191610a06565b820191906000526020600020905b8154815290600101906020018083116109e957829003601f168201915b5050505050815260200160078201805480602002602001604051908101604052809291908181526020018280548015610a9457602002820191906000526020600020905b8160009054906101000a900473ffffffffffffffffffffffffffffffffffffffff1673ffffffffffffffffffffffffffffffffffffffff1681526020019060010190808311610a4a575b5050505050815260200160088201805480602002602001604051908101604052809291908181526020018280548015610aec57602002820191906000526020600020905b815481526020019060010190808311610ad8575b505050505081525050838381518110610b0857610b0761193e565b5b60200260200101819052505080806001019150506107b8565b508091505090565b604051806101200160405280600073ffffffffffffffffffffffffffffffffffffffff16815260200160608152602001606081526020016000815260200160008152602001600081526020016060815260200160608152602001606081525090565b6000819050919050565b610b9e81610b8b565b82525050565b6000602082019050610bb96000830184610b95565b92915050565b6000604051905090565b600080fd5b600080fd5b610bdc81610b8b565b8114610be757600080fd5b50565b600081359050610bf981610bd3565b92915050565b600060208284031215610c1557610c14610bc9565b5b6000610c2384828501610bea565b91505092915050565b600081519050919050565b600082825260208201905092915050565b6000819050602082019050919050565b600073ffffffffffffffffffffffffffffffffffffffff82169050919050565b6000610c8382610c58565b9050919050565b610c9381610c78565b82525050565b6000610ca58383610c8a565b60208301905092915050565b6000602082019050919050565b6000610cc982610c2c565b610cd38185610c37565b9350610cde83610c48565b8060005b83811015610d0f578151610cf68882610c99565b9750610d0183610cb1565b925050600181019050610ce2565b5085935050505092915050565b600081519050919050565b600082825260208201905092915050565b6000819050602082019050919050565b610d5181610b8b565b82525050565b6000610d638383610d48565b60208301905092915050565b6000602082019050919050565b6000610d8782610d1c565b610d918185610d27565b9350610d9c83610d38565b8060005b83811015610dcd578151610db48882610d57565b9750610dbf83610d6f565b925050600181019050610da0565b5085935050505092915050565b60006040820190508181036000830152610df48185610cbe565b90508181036020830152610e088184610d7c565b90509392505050565b610e1a81610c78565b82525050565b600081519050919050565b600082825260208201905092915050565b60005b83811015610e5a578082015181840152602081019050610e3f565b60008484015250505050565b6000601f19601f8301169050919050565b6000610e8282610e20565b610e8c8185610e2b565b9350610e9c818560208601610e3c565b610ea581610e66565b840191505092915050565b600060e082019050610ec5600083018a610e11565b8181036020830152610ed78189610e77565b90508181036040830152610eeb8188610e77565b9050610efa6060830187610b95565b610f076080830186610b95565b610f1460a0830185610b95565b81810360c0830152610f268184610e77565b905098975050505050505050565b610f3d81610c78565b8114610f4857600080fd5b50565b600081359050610f5a81610f34565b92915050565b600080fd5b600080fd5b7f4e487b7100000000000000000000000000000000000000000000000000000000600052604160045260246000fd5b610fa282610e66565b810181811067ffffffffffffffff82111715610fc157610fc0610f6a565b5b80604052505050565b6000610fd4610bbf565b9050610fe08282610f99565b919050565b600067ffffffffffffffff82111561100057610fff610f6a565b5b61100982610e66565b9050602081019050919050565b82818337600083830152505050565b600061103861103384610fe5565b610fca565b90508281526020810184848401111561105457611053610f65565b5b61105f848285611016565b509392505050565b600082601f83011261107c5761107b610f60565b5b813561108c848260208601611025565b91505092915050565b60008060008060008060c087890312156110b2576110b1610bc9565b5b60006110c089828a01610f4b565b965050602087013567ffffffffffffffff8111156110e1576110e0610bce565b5b6110ed89828a01611067565b955050604087013567ffffffffffffffff81111561110e5761110d610bce565b5b61111a89828a01611067565b945050606061112b89828a01610bea565b935050608061113c89828a01610bea565b92505060a087013567ffffffffffffffff81111561115d5761115c610bce565b5b61116989828a01611067565b9150509295509295509295565b600081519050919050565b600082825260208201905092915050565b6000819050602082019050919050565b600082825260208201905092915050565b60006111be82610e20565b6111c881856111a2565b93506111d8818560208601610e3c565b6111e181610e66565b840191505092915050565b600082825260208201905092915050565b600061120882610c2c565b61121281856111ec565b935061121d83610c48565b8060005b8381101561124e5781516112358882610c99565b975061124083610cb1565b925050600181019050611221565b5085935050505092915050565b600082825260208201905092915050565b600061127782610d1c565b611281818561125b565b935061128c83610d38565b8060005b838110156112bd5781516112a48882610d57565b97506112af83610d6f565b925050600181019050611290565b5085935050505092915050565b6000610120830160008301516112e36000860182610c8a565b50602083015184820360208601526112fb82826111b3565b9150506040830151848203604086015261131582826111b3565b915050606083015161132a6060860182610d48565b50608083015161133d6080860182610d48565b5060a083015161135060a0860182610d48565b5060c083015184820360c086015261136882826111b3565b91505060e083015184820360e086015261138282826111fd565b91505061010083015184820361010086015261139e828261126c565b9150508091505092915050565b60006113b783836112ca565b905092915050565b6000602082019050919050565b60006113d782611176565b6113e18185611181565b9350836020820285016113f385611192565b8060005b8581101561142f578484038952815161141085826113ab565b945061141b836113bf565b925060208a019950506001810190506113f7565b50829750879550505050505092915050565b6000602082019050818103600083015261145b81846113cc565b905092915050565b7f4e487b7100000000000000000000000000000000000000000000000000000000600052602260045260246000fd5b600060028204905060018216806114aa57607f821691505b6020821081036114bd576114bc611463565b5b50919050565b600081905092915050565b50565b60006114de6000836114c3565b91506114e9826114ce565b600082019050919050565b60006114ff826114d1565b9150819050919050565b7f4661696c656420746f2073656e64204574686572000000000000000000000000600082015250565b600061153f601483610e2b565b915061154a82611509565b602082019050919050565b6000602082019050818103600083015261156e81611532565b9050919050565b7f4e487b7100000000000000000000000000000000000000000000000000000000600052601160045260246000fd5b60006115af82610b8b565b91506115ba83610b8b565b92508282019050808211156115d2576115d1611575565b5b92915050565b7f446561646c696e65206d75737420626520696e20746865206675747572650000600082015250565b600061160e601e83610e2b565b9150611619826115d8565b602082019050919050565b6000602082019050818103600083015261163d81611601565b9050919050565b60008190508160005260206000209050919050565b60006020601f8301049050919050565b600082821b905092915050565b6000600883026116a67fffffffffffffffffffffffffffffffffffffffffffffffffffffffffffffffff82611669565b6116b08683611669565b95508019841693508086168417925050509392505050565b6000819050919050565b60006116ed6116e86116e384610b8b565b6116c8565b610b8b565b9050919050565b6000819050919050565b611707836116d2565b61171b611713826116f4565b848454611676565b825550505050565b600090565b611730611723565b61173b8184846116fe565b505050565b5b8181101561175f57611754600082611728565b600181019050611741565b5050565b601f8211156117a45761177581611644565b61177e84611659565b8101602085101561178d578190505b6117a161179985611659565b830182611740565b50505b505050565b600082821c905092915050565b60006117c7600019846008026117a9565b1980831691505092915050565b60006117e083836117b6565b9150826002028217905092915050565b6117f982610e20565b67ffffffffffffffff81111561181257611811610f6a565b5b61181c8254611492565b611827828285611763565b600060209050601f83116001811461185a5760008415611848578287015190505b61185285826117d4565b8655506118ba565b601f19841661186886611644565b60005b828110156118905784890151825560018201915060208501945060208101905061186b565b868310156118ad57848901516118a9601f8916826117b6565b8355505b6001600288020188555050505b505050505050565b60006118cd82610b8b565b91507fffffffffffffffffffffffffffffffffffffffffffffffffffffffffffffffff82036118ff576118fe611575565b5b600182019050919050565b600061191582610b8b565b915061192083610b8b565b925082820390508181111561193857611937611575565b5b92915050565b7f4e487b7100000000000000000000000000000000000000000000000000000000600052603260045260246000fdfea2646970667358221220a10171013e69c0087a6cc7dcfa8313b187ab17686e52b475730790bbe7cce92164736f6c634300081c0033",
  "linkReferences": {},
  "deployedLinkReferences": {}
}